{
  "contractName": "Level1Completion",
  "abi": [
    {
      "inputs": [
        {
          "internalType": "address",
          "name": "_trustedForwarder",
          "type": "address"
        }
      ],
      "stateMutability": "nonpayable",
      "type": "constructor"
    },
    {
      "anonymous": false,
      "inputs": [
        {
          "indexed": true,
          "internalType": "address",
          "name": "owner",
          "type": "address"
        },
        {
          "indexed": true,
          "internalType": "address",
          "name": "approved",
          "type": "address"
        },
        {
          "indexed": true,
          "internalType": "uint256",
          "name": "tokenId",
          "type": "uint256"
        }
      ],
      "name": "Approval",
      "type": "event"
    },
    {
      "anonymous": false,
      "inputs": [
        {
          "indexed": true,
          "internalType": "address",
          "name": "owner",
          "type": "address"
        },
        {
          "indexed": true,
          "internalType": "address",
          "name": "operator",
          "type": "address"
        },
        {
          "indexed": false,
          "internalType": "bool",
          "name": "approved",
          "type": "bool"
        }
      ],
      "name": "ApprovalForAll",
      "type": "event"
    },
    {
      "anonymous": false,
      "inputs": [
        {
          "indexed": false,
          "internalType": "address",
          "name": "",
          "type": "address"
        },
        {
          "indexed": false,
          "internalType": "string",
          "name": "",
          "type": "string"
        },
        {
          "indexed": false,
          "internalType": "uint256",
          "name": "",
          "type": "uint256"
        }
      ],
      "name": "SuccessfulLevel1Mint",
      "type": "event"
    },
    {
      "anonymous": false,
      "inputs": [
        {
          "indexed": true,
          "internalType": "address",
          "name": "from",
          "type": "address"
        },
        {
          "indexed": true,
          "internalType": "address",
          "name": "to",
          "type": "address"
        },
        {
          "indexed": true,
          "internalType": "uint256",
          "name": "tokenId",
          "type": "uint256"
        }
      ],
      "name": "Transfer",
      "type": "event"
    },
    {
      "inputs": [
        {
          "internalType": "address",
          "name": "to",
          "type": "address"
        },
        {
          "internalType": "uint256",
          "name": "tokenId",
          "type": "uint256"
        }
      ],
      "name": "approve",
      "outputs": [],
      "stateMutability": "nonpayable",
      "type": "function"
    },
    {
      "inputs": [
        {
          "internalType": "address",
          "name": "owner",
          "type": "address"
        }
      ],
      "name": "balanceOf",
      "outputs": [
        {
          "internalType": "uint256",
          "name": "",
          "type": "uint256"
        }
      ],
      "stateMutability": "view",
      "type": "function",
      "constant": true
    },
    {
      "inputs": [
        {
          "internalType": "uint256",
          "name": "tokenId",
          "type": "uint256"
        }
      ],
      "name": "getApproved",
      "outputs": [
        {
          "internalType": "address",
          "name": "",
          "type": "address"
        }
      ],
      "stateMutability": "view",
      "type": "function",
      "constant": true
    },
    {
      "inputs": [
        {
          "internalType": "address",
          "name": "owner",
          "type": "address"
        },
        {
          "internalType": "address",
          "name": "operator",
          "type": "address"
        }
      ],
      "name": "isApprovedForAll",
      "outputs": [
        {
          "internalType": "bool",
          "name": "",
          "type": "bool"
        }
      ],
      "stateMutability": "view",
      "type": "function",
      "constant": true
    },
    {
      "inputs": [
        {
          "internalType": "address",
          "name": "forwarder",
          "type": "address"
        }
      ],
      "name": "isTrustedForwarder",
      "outputs": [
        {
          "internalType": "bool",
          "name": "",
          "type": "bool"
        }
      ],
      "stateMutability": "view",
      "type": "function",
      "constant": true
    },
    {
      "inputs": [],
      "name": "name",
      "outputs": [
        {
          "internalType": "string",
          "name": "",
          "type": "string"
        }
      ],
      "stateMutability": "view",
      "type": "function",
      "constant": true
    },
    {
      "inputs": [
        {
          "internalType": "uint256",
          "name": "tokenId",
          "type": "uint256"
        }
      ],
      "name": "ownerOf",
      "outputs": [
        {
          "internalType": "address",
          "name": "",
          "type": "address"
        }
      ],
      "stateMutability": "view",
      "type": "function",
      "constant": true
    },
    {
      "inputs": [
        {
          "internalType": "address",
          "name": "from",
          "type": "address"
        },
        {
          "internalType": "address",
          "name": "to",
          "type": "address"
        },
        {
          "internalType": "uint256",
          "name": "tokenId",
          "type": "uint256"
        }
      ],
      "name": "safeTransferFrom",
      "outputs": [],
      "stateMutability": "nonpayable",
      "type": "function"
    },
    {
      "inputs": [
        {
          "internalType": "address",
          "name": "from",
          "type": "address"
        },
        {
          "internalType": "address",
          "name": "to",
          "type": "address"
        },
        {
          "internalType": "uint256",
          "name": "tokenId",
          "type": "uint256"
        },
        {
          "internalType": "bytes",
          "name": "_data",
          "type": "bytes"
        }
      ],
      "name": "safeTransferFrom",
      "outputs": [],
      "stateMutability": "nonpayable",
      "type": "function"
    },
    {
      "inputs": [
        {
          "internalType": "address",
          "name": "operator",
          "type": "address"
        },
        {
          "internalType": "bool",
          "name": "approved",
          "type": "bool"
        }
      ],
      "name": "setApprovalForAll",
      "outputs": [],
      "stateMutability": "nonpayable",
      "type": "function"
    },
    {
      "inputs": [],
      "name": "symbol",
      "outputs": [
        {
          "internalType": "string",
          "name": "",
          "type": "string"
        }
      ],
      "stateMutability": "view",
      "type": "function",
      "constant": true
    },
    {
      "inputs": [
        {
          "internalType": "uint256",
          "name": "index",
          "type": "uint256"
        }
      ],
      "name": "tokenByIndex",
      "outputs": [
        {
          "internalType": "uint256",
          "name": "",
          "type": "uint256"
        }
      ],
      "stateMutability": "view",
      "type": "function",
      "constant": true
    },
    {
      "inputs": [
        {
          "internalType": "address",
          "name": "owner",
          "type": "address"
        },
        {
          "internalType": "uint256",
          "name": "index",
          "type": "uint256"
        }
      ],
      "name": "tokenOfOwnerByIndex",
      "outputs": [
        {
          "internalType": "uint256",
          "name": "",
          "type": "uint256"
        }
      ],
      "stateMutability": "view",
      "type": "function",
      "constant": true
    },
    {
      "inputs": [],
      "name": "totalSupply",
      "outputs": [
        {
          "internalType": "uint256",
          "name": "",
          "type": "uint256"
        }
      ],
      "stateMutability": "view",
      "type": "function",
      "constant": true
    },
    {
      "inputs": [
        {
          "internalType": "address",
          "name": "from",
          "type": "address"
        },
        {
          "internalType": "address",
          "name": "to",
          "type": "address"
        },
        {
          "internalType": "uint256",
          "name": "tokenId",
          "type": "uint256"
        }
      ],
      "name": "transferFrom",
      "outputs": [],
      "stateMutability": "nonpayable",
      "type": "function"
    },
    {
      "inputs": [],
      "name": "trustedForwarder",
      "outputs": [
        {
          "internalType": "address",
          "name": "",
          "type": "address"
        }
      ],
      "stateMutability": "view",
      "type": "function",
      "constant": true
    },
    {
      "inputs": [],
      "name": "versionRecipient",
      "outputs": [
        {
          "internalType": "string",
          "name": "",
          "type": "string"
        }
      ],
      "stateMutability": "view",
      "type": "function",
      "constant": true
    },
    {
      "inputs": [
        {
          "internalType": "address",
          "name": "learner",
          "type": "address"
        },
        {
          "internalType": "string",
          "name": "tokenImg",
          "type": "string"
        }
      ],
      "name": "awardCertificate",
      "outputs": [
        {
          "internalType": "uint256",
          "name": "",
          "type": "uint256"
        }
      ],
      "stateMutability": "nonpayable",
      "type": "function"
    },
    {
      "inputs": [
        {
          "internalType": "uint256",
          "name": "tokenId",
          "type": "uint256"
        }
      ],
      "name": "tokenURI",
      "outputs": [
        {
          "internalType": "string",
          "name": "",
          "type": "string"
        }
      ],
      "stateMutability": "view",
      "type": "function",
      "constant": true
    },
    {
      "inputs": [
        {
          "internalType": "bytes4",
          "name": "interfaceId",
          "type": "bytes4"
        }
      ],
      "name": "supportsInterface",
      "outputs": [
        {
          "internalType": "bool",
          "name": "",
          "type": "bool"
        }
      ],
      "stateMutability": "view",
      "type": "function",
      "constant": true
    }
  ],
  "bytecode": "0x60806040526040518060400160405280600581526020017f322e322e30000000000000000000000000000000000000000000000000000000815250600d90805190602001906200005192919062000180565b503480156200005f57600080fd5b50604051620039343803806200393483398181016040528101906200008591906200029a565b6040518060400160405280600c81526020017f4c31436f6d706c6574696f6e00000000000000000000000000000000000000008152506040518060400160405280600381526020017f4c3143000000000000000000000000000000000000000000000000000000000081525081600190805190602001906200010992919062000180565b5080600290805190602001906200012292919062000180565b50505062000136816200013d60201b60201c565b5062000331565b806000806101000a81548173ffffffffffffffffffffffffffffffffffffffff021916908373ffffffffffffffffffffffffffffffffffffffff16021790555050565b8280546200018e90620002fb565b90600052602060002090601f016020900481019282620001b25760008555620001fe565b82601f10620001cd57805160ff1916838001178555620001fe565b82800160010185558215620001fe579182015b82811115620001fd578251825591602001919060010190620001e0565b5b5090506200020d919062000211565b5090565b5b808211156200022c57600081600090555060010162000212565b5090565b600080fd5b600073ffffffffffffffffffffffffffffffffffffffff82169050919050565b6000620002628262000235565b9050919050565b620002748162000255565b81146200028057600080fd5b50565b600081519050620002948162000269565b92915050565b600060208284031215620002b357620002b262000230565b5b6000620002c38482850162000283565b91505092915050565b7f4e487b7100000000000000000000000000000000000000000000000000000000600052602260045260246000fd5b600060028204905060018216806200031457607f821691505b602082108114156200032b576200032a620002cc565b5b50919050565b6135f380620003416000396000f3fe608060405234801561001057600080fd5b506004361061012c5760003560e01c8063572b6c05116100ad57806395d89b411161007157806395d89b411461037d578063a22cb4651461039b578063b88d4fde146103b7578063c87b56dd146103d3578063e985e9c5146104035761012c565b8063572b6c051461029f5780636352211e146102cf57806370a08231146102ff5780637da0a8771461032f578063849c9b451461034d5761012c565b806323b872dd116100f457806323b872dd146101e95780632f745c591461020557806342842e0e14610235578063486ff0cd146102515780634f6ccce71461026f5761012c565b806301ffc9a71461013157806306fdde0314610161578063081812fc1461017f578063095ea7b3146101af57806318160ddd146101cb575b600080fd5b61014b600480360381019061014691906121c4565b610433565b604051610158919061220c565b60405180910390f35b610169610445565b60405161017691906122c0565b60405180910390f35b61019960048036038101906101949190612318565b6104d7565b6040516101a69190612386565b60405180910390f35b6101c960048036038101906101c491906123cd565b61055c565b005b6101d3610674565b6040516101e0919061241c565b60405180910390f35b61020360048036038101906101fe9190612437565b610681565b005b61021f600480360381019061021a91906123cd565b6106e1565b60405161022c919061241c565b60405180910390f35b61024f600480360381019061024a9190612437565b610786565b005b6102596107a6565b60405161026691906122c0565b60405180910390f35b61028960048036038101906102849190612318565b610834565b604051610296919061241c565b60405180910390f35b6102b960048036038101906102b4919061248a565b6108a5565b6040516102c6919061220c565b60405180910390f35b6102e960048036038101906102e49190612318565b6108fe565b6040516102f69190612386565b60405180910390f35b6103196004803603810190610314919061248a565b6109b0565b604051610326919061241c565b60405180910390f35b610337610a68565b6040516103449190612386565b60405180910390f35b610367600480360381019061036291906125ec565b610a91565b604051610374919061241c565b60405180910390f35b610385610b04565b60405161039291906122c0565b60405180910390f35b6103b560048036038101906103b09190612674565b610b96565b005b6103d160048036038101906103cc9190612755565b610bac565b005b6103ed60048036038101906103e89190612318565b610c0e565b6040516103fa91906122c0565b60405180910390f35b61041d600480360381019061041891906127d8565b610c20565b60405161042a919061220c565b60405180910390f35b600061043e82610cb4565b9050919050565b60606001805461045490612847565b80601f016020809104026020016040519081016040528092919081815260200182805461048090612847565b80156104cd5780601f106104a2576101008083540402835291602001916104cd565b820191906000526020600020905b8154815290600101906020018083116104b057829003601f168201915b5050505050905090565b60006104e282610d2e565b610521576040517f08c379a0000000000000000000000000000000000000000000000000000000008152600401610518906128eb565b60405180910390fd5b6005600083815260200190815260200160002060009054906101000a900473ffffffffffffffffffffffffffffffffffffffff169050919050565b6000610567826108fe565b90508073ffffffffffffffffffffffffffffffffffffffff168373ffffffffffffffffffffffffffffffffffffffff1614156105d8576040517f08c379a00000000000000000000000000000000000000000000000000000000081526004016105cf9061297d565b60405180910390fd5b8073ffffffffffffffffffffffffffffffffffffffff166105f7610d9a565b73ffffffffffffffffffffffffffffffffffffffff161480610626575061062581610620610d9a565b610c20565b5b610665576040517f08c379a000000000000000000000000000000000000000000000000000000000815260040161065c90612a0f565b60405180910390fd5b61066f8383610da9565b505050565b6000600980549050905090565b61069261068c610d9a565b82610e62565b6106d1576040517f08c379a00000000000000000000000000000000000000000000000000000000081526004016106c890612aa1565b60405180910390fd5b6106dc838383610f40565b505050565b60006106ec836109b0565b821061072d576040517f08c379a000000000000000000000000000000000000000000000000000000000815260040161072490612b33565b60405180910390fd5b600760008473ffffffffffffffffffffffffffffffffffffffff1673ffffffffffffffffffffffffffffffffffffffff168152602001908152602001600020600083815260200190815260200160002054905092915050565b6107a183838360405180602001604052806000815250610bac565b505050565b600d80546107b390612847565b80601f01602080910402602001604051908101604052809291908181526020018280546107df90612847565b801561082c5780601f106108015761010080835404028352916020019161082c565b820191906000526020600020905b81548152906001019060200180831161080f57829003601f168201915b505050505081565b600061083e610674565b821061087f576040517f08c379a000000000000000000000000000000000000000000000000000000000815260040161087690612bc5565b60405180910390fd5b6009828154811061089357610892612be5565b5b90600052602060002001549050919050565b60008060009054906101000a900473ffffffffffffffffffffffffffffffffffffffff1673ffffffffffffffffffffffffffffffffffffffff168273ffffffffffffffffffffffffffffffffffffffff16149050919050565b6000806003600084815260200190815260200160002060009054906101000a900473ffffffffffffffffffffffffffffffffffffffff169050600073ffffffffffffffffffffffffffffffffffffffff168173ffffffffffffffffffffffffffffffffffffffff1614156109a7576040517f08c379a000000000000000000000000000000000000000000000000000000000815260040161099e90612c86565b60405180910390fd5b80915050919050565b60008073ffffffffffffffffffffffffffffffffffffffff168273ffffffffffffffffffffffffffffffffffffffff161415610a21576040517f08c379a0000000000000000000000000000000000000000000000000000000008152600401610a1890612d18565b60405180910390fd5b600460008373ffffffffffffffffffffffffffffffffffffffff1673ffffffffffffffffffffffffffffffffffffffff168152602001908152602001600020549050919050565b60008060009054906101000a900473ffffffffffffffffffffffffffffffffffffffff16905090565b6000610a9d600c6111a7565b6000610aa9600c6111bd565b9050610ab584826111cb565b610abf81846113a5565b7f19d5993159bd33a0dee1bbda9a4d26e4b0ddf1aee36c3d698682f63ba144ccce848483604051610af293929190612d38565b60405180910390a18091505092915050565b606060028054610b1390612847565b80601f0160208091040260200160405190810160405280929190818152602001828054610b3f90612847565b8015610b8c5780601f10610b6157610100808354040283529160200191610b8c565b820191906000526020600020905b815481529060010190602001808311610b6f57829003601f168201915b5050505050905090565b610ba8610ba1610d9a565b8383611419565b5050565b610bbd610bb7610d9a565b83610e62565b610bfc576040517f08c379a0000000000000000000000000000000000000000000000000000000008152600401610bf390612aa1565b60405180910390fd5b610c0884848484611586565b50505050565b6060610c19826115e2565b9050919050565b6000600660008473ffffffffffffffffffffffffffffffffffffffff1673ffffffffffffffffffffffffffffffffffffffff16815260200190815260200160002060008373ffffffffffffffffffffffffffffffffffffffff1673ffffffffffffffffffffffffffffffffffffffff16815260200190815260200160002060009054906101000a900460ff16905092915050565b60007f780e9d63000000000000000000000000000000000000000000000000000000007bffffffffffffffffffffffffffffffffffffffffffffffffffffffff1916827bffffffffffffffffffffffffffffffffffffffffffffffffffffffff19161480610d275750610d2682611734565b5b9050919050565b60008073ffffffffffffffffffffffffffffffffffffffff166003600084815260200190815260200160002060009054906101000a900473ffffffffffffffffffffffffffffffffffffffff1673ffffffffffffffffffffffffffffffffffffffff1614159050919050565b6000610da4611816565b905090565b816005600083815260200190815260200160002060006101000a81548173ffffffffffffffffffffffffffffffffffffffff021916908373ffffffffffffffffffffffffffffffffffffffff160217905550808273ffffffffffffffffffffffffffffffffffffffff16610e1c836108fe565b73ffffffffffffffffffffffffffffffffffffffff167f8c5be1e5ebec7d5bd14f71427d1e84f3dd0314c0f7b2291e5b200ac8c7c3b92560405160405180910390a45050565b6000610e6d82610d2e565b610eac576040517f08c379a0000000000000000000000000000000000000000000000000000000008152600401610ea390612de8565b60405180910390fd5b6000610eb7836108fe565b90508073ffffffffffffffffffffffffffffffffffffffff168473ffffffffffffffffffffffffffffffffffffffff161480610f2657508373ffffffffffffffffffffffffffffffffffffffff16610f0e846104d7565b73ffffffffffffffffffffffffffffffffffffffff16145b80610f375750610f368185610c20565b5b91505092915050565b8273ffffffffffffffffffffffffffffffffffffffff16610f60826108fe565b73ffffffffffffffffffffffffffffffffffffffff1614610fb6576040517f08c379a0000000000000000000000000000000000000000000000000000000008152600401610fad90612e7a565b60405180910390fd5b600073ffffffffffffffffffffffffffffffffffffffff168273ffffffffffffffffffffffffffffffffffffffff161415611026576040517f08c379a000000000000000000000000000000000000000000000000000000000815260040161101d90612f0c565b60405180910390fd5b61103183838361184d565b61103c600082610da9565b6001600460008573ffffffffffffffffffffffffffffffffffffffff1673ffffffffffffffffffffffffffffffffffffffff168152602001908152602001600020600082825461108c9190612f5b565b925050819055506001600460008473ffffffffffffffffffffffffffffffffffffffff1673ffffffffffffffffffffffffffffffffffffffff16815260200190815260200160002060008282546110e39190612f8f565b92505081905550816003600083815260200190815260200160002060006101000a81548173ffffffffffffffffffffffffffffffffffffffff021916908373ffffffffffffffffffffffffffffffffffffffff160217905550808273ffffffffffffffffffffffffffffffffffffffff168473ffffffffffffffffffffffffffffffffffffffff167fddf252ad1be2c89b69c2b068fc378daa952ba7f163c4a11628f55a4df523b3ef60405160405180910390a46111a283838361185d565b505050565b6001816000016000828254019250508190555050565b600081600001549050919050565b600073ffffffffffffffffffffffffffffffffffffffff168273ffffffffffffffffffffffffffffffffffffffff16141561123b576040517f08c379a000000000000000000000000000000000000000000000000000000000815260040161123290613031565b60405180910390fd5b61124481610d2e565b15611284576040517f08c379a000000000000000000000000000000000000000000000000000000000815260040161127b9061309d565b60405180910390fd5b6112906000838361184d565b6001600460008473ffffffffffffffffffffffffffffffffffffffff1673ffffffffffffffffffffffffffffffffffffffff16815260200190815260200160002060008282546112e09190612f8f565b92505081905550816003600083815260200190815260200160002060006101000a81548173ffffffffffffffffffffffffffffffffffffffff021916908373ffffffffffffffffffffffffffffffffffffffff160217905550808273ffffffffffffffffffffffffffffffffffffffff16600073ffffffffffffffffffffffffffffffffffffffff167fddf252ad1be2c89b69c2b068fc378daa952ba7f163c4a11628f55a4df523b3ef60405160405180910390a46113a16000838361185d565b5050565b6113ae82610d2e565b6113ed576040517f08c379a00000000000000000000000000000000000000000000000000000000081526004016113e49061312f565b60405180910390fd5b80600b600084815260200190815260200160002090805190602001906114149291906120b5565b505050565b8173ffffffffffffffffffffffffffffffffffffffff168373ffffffffffffffffffffffffffffffffffffffff161415611488576040517f08c379a000000000000000000000000000000000000000000000000000000000815260040161147f9061319b565b60405180910390fd5b80600660008573ffffffffffffffffffffffffffffffffffffffff1673ffffffffffffffffffffffffffffffffffffffff16815260200190815260200160002060008473ffffffffffffffffffffffffffffffffffffffff1673ffffffffffffffffffffffffffffffffffffffff16815260200190815260200160002060006101000a81548160ff0219169083151502179055508173ffffffffffffffffffffffffffffffffffffffff168373ffffffffffffffffffffffffffffffffffffffff167f17307eab39ab6107e8899845ad3d59bd9653f200f220920489ca2b5937696c3183604051611579919061220c565b60405180910390a3505050565b611591848484610f40565b61159d84848484611862565b6115dc576040517f08c379a00000000000000000000000000000000000000000000000000000000081526004016115d39061322d565b60405180910390fd5b50505050565b60606115ed82610d2e565b61162c576040517f08c379a0000000000000000000000000000000000000000000000000000000008152600401611623906132bf565b60405180910390fd5b6000600b6000848152602001908152602001600020805461164c90612847565b80601f016020809104026020016040519081016040528092919081815260200182805461167890612847565b80156116c55780601f1061169a576101008083540402835291602001916116c5565b820191906000526020600020905b8154815290600101906020018083116116a857829003601f168201915b5050505050905060006116d66119ea565b90506000815114156116ec57819250505061172f565b60008251111561172157808260405160200161170992919061331b565b6040516020818303038152906040529250505061172f565b61172a84611a01565b925050505b919050565b60007f80ac58cd000000000000000000000000000000000000000000000000000000007bffffffffffffffffffffffffffffffffffffffffffffffffffffffff1916827bffffffffffffffffffffffffffffffffffffffffffffffffffffffff191614806117ff57507f5b5e139f000000000000000000000000000000000000000000000000000000007bffffffffffffffffffffffffffffffffffffffffffffffffffffffff1916827bffffffffffffffffffffffffffffffffffffffffffffffffffffffff1916145b8061180f575061180e82611aa8565b5b9050919050565b600060146000369050101580156118325750611831336108a5565b5b1561184657601436033560601c905061184a565b3390505b90565b611858838383611b12565b505050565b505050565b60006118838473ffffffffffffffffffffffffffffffffffffffff16611c26565b156119dd578373ffffffffffffffffffffffffffffffffffffffff1663150b7a026118ac610d9a565b8786866040518563ffffffff1660e01b81526004016118ce9493929190613394565b6020604051808303816000875af192505050801561190a57506040513d601f19601f8201168201806040525081019061190791906133f5565b60015b61198d573d806000811461193a576040519150601f19603f3d011682016040523d82523d6000602084013e61193f565b606091505b50600081511415611985576040517f08c379a000000000000000000000000000000000000000000000000000000000815260040161197c9061322d565b60405180910390fd5b805181602001fd5b63150b7a0260e01b7bffffffffffffffffffffffffffffffffffffffffffffffffffffffff1916817bffffffffffffffffffffffffffffffffffffffffffffffffffffffff1916149150506119e2565b600190505b949350505050565b606060405180602001604052806000815250905090565b6060611a0c82610d2e565b611a4b576040517f08c379a0000000000000000000000000000000000000000000000000000000008152600401611a4290613494565b60405180910390fd5b6000611a556119ea565b90506000815111611a755760405180602001604052806000815250611aa0565b80611a7f84611c49565b604051602001611a9092919061331b565b6040516020818303038152906040525b915050919050565b60007f01ffc9a7000000000000000000000000000000000000000000000000000000007bffffffffffffffffffffffffffffffffffffffffffffffffffffffff1916827bffffffffffffffffffffffffffffffffffffffffffffffffffffffff1916149050919050565b611b1d838383611daa565b600073ffffffffffffffffffffffffffffffffffffffff168373ffffffffffffffffffffffffffffffffffffffff161415611b6057611b5b81611daf565b611b9f565b8173ffffffffffffffffffffffffffffffffffffffff168373ffffffffffffffffffffffffffffffffffffffff1614611b9e57611b9d8382611df8565b5b5b600073ffffffffffffffffffffffffffffffffffffffff168273ffffffffffffffffffffffffffffffffffffffff161415611be257611bdd81611f65565b611c21565b8273ffffffffffffffffffffffffffffffffffffffff168273ffffffffffffffffffffffffffffffffffffffff1614611c2057611c1f8282612036565b5b5b505050565b6000808273ffffffffffffffffffffffffffffffffffffffff163b119050919050565b60606000821415611c91576040518060400160405280600181526020017f30000000000000000000000000000000000000000000000000000000000000008152509050611da5565b600082905060005b60008214611cc3578080611cac906134b4565b915050600a82611cbc919061352c565b9150611c99565b60008167ffffffffffffffff811115611cdf57611cde6124c1565b5b6040519080825280601f01601f191660200182016040528015611d115781602001600182028036833780820191505090505b5090505b60008514611d9e57600182611d2a9190612f5b565b9150600a85611d39919061355d565b6030611d459190612f8f565b60f81b818381518110611d5b57611d5a612be5565b5b60200101907effffffffffffffffffffffffffffffffffffffffffffffffffffffffffffff1916908160001a905350600a85611d97919061352c565b9450611d15565b8093505050505b919050565b505050565b600980549050600a600083815260200190815260200160002081905550600981908060018154018082558091505060019003906000526020600020016000909190919091505550565b60006001611e05846109b0565b611e0f9190612f5b565b9050600060086000848152602001908152602001600020549050818114611ef4576000600760008673ffffffffffffffffffffffffffffffffffffffff1673ffffffffffffffffffffffffffffffffffffffff168152602001908152602001600020600084815260200190815260200160002054905080600760008773ffffffffffffffffffffffffffffffffffffffff1673ffffffffffffffffffffffffffffffffffffffff168152602001908152602001600020600084815260200190815260200160002081905550816008600083815260200190815260200160002081905550505b6008600084815260200190815260200160002060009055600760008573ffffffffffffffffffffffffffffffffffffffff1673ffffffffffffffffffffffffffffffffffffffff16815260200190815260200160002060008381526020019081526020016000206000905550505050565b60006001600980549050611f799190612f5b565b90506000600a6000848152602001908152602001600020549050600060098381548110611fa957611fa8612be5565b5b906000526020600020015490508060098381548110611fcb57611fca612be5565b5b906000526020600020018190555081600a600083815260200190815260200160002081905550600a600085815260200190815260200160002060009055600980548061201a5761201961358e565b5b6001900381819060005260206000200160009055905550505050565b6000612041836109b0565b905081600760008573ffffffffffffffffffffffffffffffffffffffff1673ffffffffffffffffffffffffffffffffffffffff168152602001908152602001600020600083815260200190815260200160002081905550806008600084815260200190815260200160002081905550505050565b8280546120c190612847565b90600052602060002090601f0160209004810192826120e3576000855561212a565b82601f106120fc57805160ff191683800117855561212a565b8280016001018555821561212a579182015b8281111561212957825182559160200191906001019061210e565b5b509050612137919061213b565b5090565b5b8082111561215457600081600090555060010161213c565b5090565b6000604051905090565b600080fd5b600080fd5b60007fffffffff0000000000000000000000000000000000000000000000000000000082169050919050565b6121a18161216c565b81146121ac57600080fd5b50565b6000813590506121be81612198565b92915050565b6000602082840312156121da576121d9612162565b5b60006121e8848285016121af565b91505092915050565b60008115159050919050565b612206816121f1565b82525050565b600060208201905061222160008301846121fd565b92915050565b600081519050919050565b600082825260208201905092915050565b60005b83811015612261578082015181840152602081019050612246565b83811115612270576000848401525b50505050565b6000601f19601f8301169050919050565b600061229282612227565b61229c8185612232565b93506122ac818560208601612243565b6122b581612276565b840191505092915050565b600060208201905081810360008301526122da8184612287565b905092915050565b6000819050919050565b6122f5816122e2565b811461230057600080fd5b50565b600081359050612312816122ec565b92915050565b60006020828403121561232e5761232d612162565b5b600061233c84828501612303565b91505092915050565b600073ffffffffffffffffffffffffffffffffffffffff82169050919050565b600061237082612345565b9050919050565b61238081612365565b82525050565b600060208201905061239b6000830184612377565b92915050565b6123aa81612365565b81146123b557600080fd5b50565b6000813590506123c7816123a1565b92915050565b600080604083850312156123e4576123e3612162565b5b60006123f2858286016123b8565b925050602061240385828601612303565b9150509250929050565b612416816122e2565b82525050565b6000602082019050612431600083018461240d565b92915050565b6000806000606084860312156124505761244f612162565b5b600061245e868287016123b8565b935050602061246f868287016123b8565b925050604061248086828701612303565b9150509250925092565b6000602082840312156124a05761249f612162565b5b60006124ae848285016123b8565b91505092915050565b600080fd5b600080fd5b7f4e487b7100000000000000000000000000000000000000000000000000000000600052604160045260246000fd5b6124f982612276565b810181811067ffffffffffffffff82111715612518576125176124c1565b5b80604052505050565b600061252b612158565b905061253782826124f0565b919050565b600067ffffffffffffffff821115612557576125566124c1565b5b61256082612276565b9050602081019050919050565b82818337600083830152505050565b600061258f61258a8461253c565b612521565b9050828152602081018484840111156125ab576125aa6124bc565b5b6125b684828561256d565b509392505050565b600082601f8301126125d3576125d26124b7565b5b81356125e384826020860161257c565b91505092915050565b6000806040838503121561260357612602612162565b5b6000612611858286016123b8565b925050602083013567ffffffffffffffff81111561263257612631612167565b5b61263e858286016125be565b9150509250929050565b612651816121f1565b811461265c57600080fd5b50565b60008135905061266e81612648565b92915050565b6000806040838503121561268b5761268a612162565b5b6000612699858286016123b8565b92505060206126aa8582860161265f565b9150509250929050565b600067ffffffffffffffff8211156126cf576126ce6124c1565b5b6126d882612276565b9050602081019050919050565b60006126f86126f3846126b4565b612521565b905082815260208101848484011115612714576127136124bc565b5b61271f84828561256d565b509392505050565b600082601f83011261273c5761273b6124b7565b5b813561274c8482602086016126e5565b91505092915050565b6000806000806080858703121561276f5761276e612162565b5b600061277d878288016123b8565b945050602061278e878288016123b8565b935050604061279f87828801612303565b925050606085013567ffffffffffffffff8111156127c0576127bf612167565b5b6127cc87828801612727565b91505092959194509250565b600080604083850312156127ef576127ee612162565b5b60006127fd858286016123b8565b925050602061280e858286016123b8565b9150509250929050565b7f4e487b7100000000000000000000000000000000000000000000000000000000600052602260045260246000fd5b6000600282049050600182168061285f57607f821691505b6020821081141561287357612872612818565b5b50919050565b7f4552433732313a20617070726f76656420717565727920666f72206e6f6e657860008201527f697374656e7420746f6b656e0000000000000000000000000000000000000000602082015250565b60006128d5602c83612232565b91506128e082612879565b604082019050919050565b60006020820190508181036000830152612904816128c8565b9050919050565b7f4552433732313a20617070726f76616c20746f2063757272656e74206f776e6560008201527f7200000000000000000000000000000000000000000000000000000000000000602082015250565b6000612967602183612232565b91506129728261290b565b604082019050919050565b600060208201905081810360008301526129968161295a565b9050919050565b7f4552433732313a20617070726f76652063616c6c6572206973206e6f74206f7760008201527f6e6572206e6f7220617070726f76656420666f7220616c6c0000000000000000602082015250565b60006129f9603883612232565b9150612a048261299d565b604082019050919050565b60006020820190508181036000830152612a28816129ec565b9050919050565b7f4552433732313a207472616e736665722063616c6c6572206973206e6f74206f60008201527f776e6572206e6f7220617070726f766564000000000000000000000000000000602082015250565b6000612a8b603183612232565b9150612a9682612a2f565b604082019050919050565b60006020820190508181036000830152612aba81612a7e565b9050919050565b7f455243373231456e756d657261626c653a206f776e657220696e646578206f7560008201527f74206f6620626f756e6473000000000000000000000000000000000000000000602082015250565b6000612b1d602b83612232565b9150612b2882612ac1565b604082019050919050565b60006020820190508181036000830152612b4c81612b10565b9050919050565b7f455243373231456e756d657261626c653a20676c6f62616c20696e646578206f60008201527f7574206f6620626f756e64730000000000000000000000000000000000000000602082015250565b6000612baf602c83612232565b9150612bba82612b53565b604082019050919050565b60006020820190508181036000830152612bde81612ba2565b9050919050565b7f4e487b7100000000000000000000000000000000000000000000000000000000600052603260045260246000fd5b7f4552433732313a206f776e657220717565727920666f72206e6f6e657869737460008201527f656e7420746f6b656e0000000000000000000000000000000000000000000000602082015250565b6000612c70602983612232565b9150612c7b82612c14565b604082019050919050565b60006020820190508181036000830152612c9f81612c63565b9050919050565b7f4552433732313a2062616c616e636520717565727920666f7220746865207a6560008201527f726f206164647265737300000000000000000000000000000000000000000000602082015250565b6000612d02602a83612232565b9150612d0d82612ca6565b604082019050919050565b60006020820190508181036000830152612d3181612cf5565b9050919050565b6000606082019050612d4d6000830186612377565b8181036020830152612d5f8185612287565b9050612d6e604083018461240d565b949350505050565b7f4552433732313a206f70657261746f7220717565727920666f72206e6f6e657860008201527f697374656e7420746f6b656e0000000000000000000000000000000000000000602082015250565b6000612dd2602c83612232565b9150612ddd82612d76565b604082019050919050565b60006020820190508181036000830152612e0181612dc5565b9050919050565b7f4552433732313a207472616e736665722066726f6d20696e636f72726563742060008201527f6f776e6572000000000000000000000000000000000000000000000000000000602082015250565b6000612e64602583612232565b9150612e6f82612e08565b604082019050919050565b60006020820190508181036000830152612e9381612e57565b9050919050565b7f4552433732313a207472616e7366657220746f20746865207a65726f2061646460008201527f7265737300000000000000000000000000000000000000000000000000000000602082015250565b6000612ef6602483612232565b9150612f0182612e9a565b604082019050919050565b60006020820190508181036000830152612f2581612ee9565b9050919050565b7f4e487b7100000000000000000000000000000000000000000000000000000000600052601160045260246000fd5b6000612f66826122e2565b9150612f71836122e2565b925082821015612f8457612f83612f2c565b5b828203905092915050565b6000612f9a826122e2565b9150612fa5836122e2565b9250827fffffffffffffffffffffffffffffffffffffffffffffffffffffffffffffffff03821115612fda57612fd9612f2c565b5b828201905092915050565b7f4552433732313a206d696e7420746f20746865207a65726f2061646472657373600082015250565b600061301b602083612232565b915061302682612fe5565b602082019050919050565b6000602082019050818103600083015261304a8161300e565b9050919050565b7f4552433732313a20746f6b656e20616c7265616479206d696e74656400000000600082015250565b6000613087601c83612232565b915061309282613051565b602082019050919050565b600060208201905081810360008301526130b68161307a565b9050919050565b7f45524337323155524953746f726167653a2055524920736574206f66206e6f6e60008201527f6578697374656e7420746f6b656e000000000000000000000000000000000000602082015250565b6000613119602e83612232565b9150613124826130bd565b604082019050919050565b600060208201905081810360008301526131488161310c565b9050919050565b7f4552433732313a20617070726f766520746f2063616c6c657200000000000000600082015250565b6000613185601983612232565b91506131908261314f565b602082019050919050565b600060208201905081810360008301526131b481613178565b9050919050565b7f4552433732313a207472616e7366657220746f206e6f6e20455243373231526560008201527f63656976657220696d706c656d656e7465720000000000000000000000000000602082015250565b6000613217603283612232565b9150613222826131bb565b604082019050919050565b600060208201905081810360008301526132468161320a565b9050919050565b7f45524337323155524953746f726167653a2055524920717565727920666f722060008201527f6e6f6e6578697374656e7420746f6b656e000000000000000000000000000000602082015250565b60006132a9603183612232565b91506132b48261324d565b604082019050919050565b600060208201905081810360008301526132d88161329c565b9050919050565b600081905092915050565b60006132f582612227565b6132ff81856132df565b935061330f818560208601612243565b80840191505092915050565b600061332782856132ea565b915061333382846132ea565b91508190509392505050565b600081519050919050565b600082825260208201905092915050565b60006133668261333f565b613370818561334a565b9350613380818560208601612243565b61338981612276565b840191505092915050565b60006080820190506133a96000830187612377565b6133b66020830186612377565b6133c3604083018561240d565b81810360608301526133d5818461335b565b905095945050505050565b6000815190506133ef81612198565b92915050565b60006020828403121561340b5761340a612162565b5b6000613419848285016133e0565b91505092915050565b7f4552433732314d657461646174613a2055524920717565727920666f72206e6f60008201527f6e6578697374656e7420746f6b656e0000000000000000000000000000000000602082015250565b600061347e602f83612232565b915061348982613422565b604082019050919050565b600060208201905081810360008301526134ad81613471565b9050919050565b60006134bf826122e2565b91507fffffffffffffffffffffffffffffffffffffffffffffffffffffffffffffffff8214156134f2576134f1612f2c565b5b600182019050919050565b7f4e487b7100000000000000000000000000000000000000000000000000000000600052601260045260246000fd5b6000613537826122e2565b9150613542836122e2565b925082613552576135516134fd565b5b828204905092915050565b6000613568826122e2565b9150613573836122e2565b925082613583576135826134fd565b5b828206905092915050565b7f4e487b7100000000000000000000000000000000000000000000000000000000600052603160045260246000fdfea2646970667358221220df51a7fc10130ebf2d839ecf9ed756bdb1b11a61f88f3938793fe1c19df40c3864736f6c634300080a0033",
  "immutableReferences": {},
  "source": "// SPDX-License-Identifier: MIT \npragma solidity ^0.8.10;  \n\nimport \"../node_modules/@openzeppelin/contracts/token/ERC721/extensions/ERC721URIStorage.sol\";\nimport \"../node_modules/@openzeppelin/contracts/token/ERC721/extensions/ERC721Enumerable.sol\";\nimport \"@openzeppelin/contracts/utils/Counters.sol\";\nimport \"@opengsn/contracts/src/BaseRelayRecipient.sol\";\n\n\ncontract Level1Completion is BaseRelayRecipient, ERC721Enumerable, ERC721URIStorage {  \n\n    using Counters for Counters.Counter;\n    Counters.Counter private _tokenIds; \n\n  \n        constructor(address _trustedForwarder) ERC721(\"L1Completion\",\"L1C\") {\n        _setTrustedForwarder(_trustedForwarder);\n    } \n\n\n    string public override versionRecipient = \"2.2.0\";\n\n    event SuccessfulLevel1Mint(address, string, uint256); \n\n\n    function awardCertificate(address learner, string memory tokenImg) public returns (uint256) {\n        _tokenIds.increment();\n\n        uint256 newItemId = _tokenIds.current();\n        _mint(learner, newItemId);\n        _setTokenURI(newItemId, tokenImg);\n\n        emit SuccessfulLevel1Mint(learner, tokenImg, newItemId);\n\n        return newItemId;\n    }\n\n    //override functions for BaseRelay\n\n    function _msgSender() internal view override(Context, BaseRelayRecipient) returns (address sender) {\n        sender = BaseRelayRecipient._msgSender();\n  }\n\n    function _msgData() internal view override(Context, BaseRelayRecipient) returns (bytes memory) {\n        return BaseRelayRecipient._msgData();\n  }\n\n  //override functions for ERC721 Enummerable\n\n    function _beforeTokenTransfer(address from, address to, uint256 tokenId)\n        internal\n        override(ERC721, ERC721Enumerable)\n    {\n        super._beforeTokenTransfer(from, to, tokenId);\n    }\n\n    function _burn(uint256 tokenId) internal override(ERC721, ERC721URIStorage) {\n        super._burn(tokenId);\n    }\n\n    function tokenURI(uint256 tokenId)\n        public\n        view\n        override(ERC721, ERC721URIStorage)\n        returns (string memory)\n    {\n        return super.tokenURI(tokenId);\n    }\n\n    function supportsInterface(bytes4 interfaceId)\n        public\n        view\n        override(ERC721, ERC721Enumerable)\n        returns (bool)\n    {\n        return super.supportsInterface(interfaceId);\n    }\n\n}\n",
  "sourcePath": "/Users/raykanani/Documents/nft-minting/contracts/Level1Completion.sol",
  "compiler": {
    "name": "solc",
    "version": "0.8.10+commit.fc410830.Emscripten.clang"
  },
  "schemaVersion": "3.4.6",
  "updatedAt": "2022-03-14T01:51:58.724Z",
  "networkType": "ethereum",
  "devdoc": {
    "kind": "dev",
    "methods": {
      "approve(address,uint256)": {
        "details": "See {IERC721-approve}."
      },
      "balanceOf(address)": {
        "details": "See {IERC721-balanceOf}."
      },
      "getApproved(uint256)": {
        "details": "See {IERC721-getApproved}."
      },
      "isApprovedForAll(address,address)": {
        "details": "See {IERC721-isApprovedForAll}."
      },
      "name()": {
        "details": "See {IERC721Metadata-name}."
      },
      "ownerOf(uint256)": {
        "details": "See {IERC721-ownerOf}."
      },
      "safeTransferFrom(address,address,uint256)": {
        "details": "See {IERC721-safeTransferFrom}."
      },
      "safeTransferFrom(address,address,uint256,bytes)": {
        "details": "See {IERC721-safeTransferFrom}."
      },
      "setApprovalForAll(address,bool)": {
        "details": "See {IERC721-setApprovalForAll}."
      },
      "symbol()": {
        "details": "See {IERC721Metadata-symbol}."
      },
      "tokenByIndex(uint256)": {
        "details": "See {IERC721Enumerable-tokenByIndex}."
      },
      "tokenOfOwnerByIndex(address,uint256)": {
        "details": "See {IERC721Enumerable-tokenOfOwnerByIndex}."
      },
      "totalSupply()": {
        "details": "See {IERC721Enumerable-totalSupply}."
      },
      "transferFrom(address,address,uint256)": {
        "details": "See {IERC721-transferFrom}."
      }
    },
    "version": 1
  },
  "userdoc": {
    "kind": "user",
    "methods": {
      "isTrustedForwarder(address)": {
        "notice": "return if the forwarder is trusted to forward relayed transactions to us. the forwarder is required to verify the sender's signature, and verify the call is not a replay."
      }
    },
    "version": 1
  }
}